:060000000A128A110C280F
:10000800FE00030EF5000A08F6000A128A11F92A02
:100018000A128A110F28F701F801F901FA01FB0108
:10002800FC0183010A128A117C2A70087104031DDD
:100038001E281F282B28C330831203139F051E0870
:10004800F200F3017208FB007308FC00E02870035B
:100058007104031D302831283828831203131F0820
:10006800C33904389F002328023070067104031D29
:100078003E283F284628831203131F08C33908382F
:100088009F002328033070067104031D4C284D2857
:100098005428831203131F08C3390C389F002328E0
:1000A800043070067104031D5A285B2862288312E5
:1000B80003131F08C33910389F0023280530700622
:1000C8007104031D682869287028831203131F0808
:1000D800C33914389F002328063070067104031DA5
:1000E800762877287E28831203131F08C339183807
:1000F8009F002328073070067104031D8428852873
:100108008C28831203131F08C3391C389F00232827
:10011800083070067104031D922893289A288312C8
:1001280003131F08C33920389F002328093070069D
:100138007104031DA028A128A828831203131F08EF
:10014800C33924389F0023280A3070067104031D20
:10015800AE28AF28B628831203131F08C3392838DE
:100168009F0023280B3070067104031DBC28BD288E
:10017800C428831203131F08C3392C389F0023286F
:100188000C3070067104031DCA28CB28D2288312AC
:1001980003131F08C33930389F0023280D30700619
:1001A8007104031DD828D928E028831203131F08D7
:1001B800C33934389F0023287C08F1007B08F000FD
:1001C800080083120313A6002603031DEC28ED285C
:1001D8000C2924087F3EA9002908A5000430031033
:1001E800A50CFF3E031DF3282508A70029080F3991
:1001F800A80027080A128A118F230A128A1183126B
:10020800031328080A128A118F230A128A117B29DC
:1002180002302606031D1129122931292408BF3E60
:10022800A9002908A50004300310A50CFF3E031DF2
:1002380018292508A70029080F39A80027080A1235
:100248008A118F230A128A118312031328080A12AB
:100258008A118F230A128A117B2903302606031D6F
:100268003629372956292408933EA9002908A500CC
:1002780004300310A50CFF3E031D3D292508A700E7
:1002880029080F39A80027080A128A118F230A1291
:100298008A118312031328080A128A118F230A125B
:1002A8008A117B2904302606031D5B295C297B29DA
:1002B8002408D33EA9002908A50004300310A50C82
:1002C800FF3E031D62292508A70029080F39A80049
:1002D80027080A128A118F230A128A11831203131C
:1002E80028080A128A118F230A128A117B2908000A
:1002F80083120313A0002008031D83298429882959
:100308008316031708140C2A2003031D8C298D2932
:1003180091298316031788140C2A02302006031D1E
:10032800962997299B298316031708150C2A033049
:100338002006031DA029A129A529831603178815BE
:100348000C2A04302006031DAA29AB29AF298316DD
:10035800031708160C2A05302006031DB429B529F1
:10036800B9298316031788160C2A06302006031DA0
:10037800BE29BF29C3298316031708170C2A07307B
:100388002006031DC829C929CD29831603178817F4
:100398000C2A08302006031DD229D329D729831611
:1003A800031709140C2A09302006031DDC29DD294E
:1003B800E1298316031789140C2A0A302006031D25
:1003C800E629E729EB298316031709150C2A0B30B0
:1003D8002006031DF029F129F5298316031789152D
:1003E8000C2A0C302006031DFA29FB29FF29831645
:1003F800031709160C2A0D302006031D042A052AA6
:10040800092A8316031789160C2A8316031708145A
:1004180008008316031306118611061286120613A6
:10042800861300300A128A1153230A128A113430B3
:1004380083120313A500F130A400A40B212AA50BF5
:10044800212A03300A128A118F230A128A110D30C9
:1004580083120313A500FB30A400A40B312AA50BBB
:10046800312A03300A128A118F230A128A111D3089
:1004780083120313A5009030A400A40B412AA50BF6
:10048800412A000003300A128A118F230A128A11A6
:1004980002300A128A118F230A128A1102300A12B4
:1004A8008A118F230A128A1108300A128A118F239F
:1004B8000A128A1100300A128A118F230A128A112D
:1004C8000C300A128A118F230A128A1100300A127C
:1004D8008A118F230A128A1106300A128A118F2371
:1004E8000A128A110A128A11D1230A128A110800E3
:1004F8000A128A1173230A128A110A128A11AB236B
:100508000A128A1100300A128A117C210A128A11F1
:1005180001300A128A117C210A128A110A128A11E0
:100528000D220A128A11831203139F189C2A9D2AEE
:100538009E2A9F14A401A40A01300A128A11E520F8
:100548000A128A1101300A128A112A230A128A1100
:10055800053083120313A40001300A128A11E52022
:100568000A128A1105300A128A112A230A128A11DC
:10057800972A0A128A110C2883120313A40024084C
:100588000F39A2002408F039A30006152308A1009A
:1005980004300310A10CFF3E031DCD2A21080A12C6
:1005A8008A1153230A128A118312031386151930EC
:1005B80083120313A100A10BDF2AE22A831203137B
:1005C800861122080A128A1153230A128A118312E9
:1005D80003138615193083120313A100A10BF22A05
:1005E800F52A8312031386110800831203130C1FC4
:1005F800FE2AFF2A232B0C130030F000F1000A1208
:100608008A1119200A128A117108FA007008F90073
:100618004230F400F40B0E2B00000130F0000030E3
:10062800F1000A128A1119200A128A117108F800B9
:100638007008F7004230F400F40B202B0000760815
:100648008A00750E8300FE0E7E0E090083120313C6
:10065800A700A501A601452B2508270784000A1233
:100668008A11C3230A128A110A128A11C0220A1295
:100678008A11013083120313A5070318A60A003054
:10068800A6072508270784000A128A11C3230A121D
:100698008A11003A031D512B522B302B080083126C
:1006A8000313A000201C592B5A2B5C2B06165D2B1C
:1006B8000612A01C602B612B632B8616642B8612F6
:1006C800201D672B682B6A2B06176B2B0613A01DA2
:1006D8006E2B6F2B712B8617722B861308008316CF
:1006E80003178901831603138701880183120313F3
:1006F80085018601870188018B170B178316031361
:100708000C17831203130C13831603130F178F167A
:100718000F160F14080083120313A30006112308F1
:100728000A128A1153230A128A1183120313861597
:100738000B3083120313A2006130A100A10BA22B7E
:10074800A20BA22BA72B8312031386110800831276
:1007580003139F171F13831603139F121F129F1350
:10076800831203139F121F129F111F111F14413070
:1007780083120313A000A00BBF2BC22B0800033069
:100788008A000408840A82070034533431343A3426
:100798000034533432343A34003400300A128A11A7
:1007A8008F230A128A1101300A128A118F230A1222
:0407B8008A1108009A
:08400000FF3FFF3FFF3FFF3FC0
:04400E00D420FF3F7C
:00000001FF
