:060000000A128A11122809
:10000800FE00030E83120313B9000408BA000A089D
:10001800BB007F08BC000A128A112A280A128A111A
:10002800152883133E30840053300A128A15AD26F2
:100038000A128A11A0308400B4300A128A15AD263B
:100048000A128A1183010A128A11BB2E0C1F2D284D
:100058002E28D6291F0CB700370C0F39003A031D7C
:1000680036283728052900300A128A11BD220A12BB
:100078008A11710883120313CF007008CE004F084D
:10008800A5004E08A4000030A600A700FF30A80075
:100098000030A9000030AA00AB006430AC0000308A
:1000A800AD000A128A1593270A128A1183120313C4
:1000B800D2006430F6000030F7005208B700B801EB
:1000C8003708F0003808F1000530F2000030F3007E
:1000D8000A128A156E270A128A117108F900700827
:1000E800F8000A128A11A3250A128A1177088312C6
:1000F8000313C9007608C8000A30A4000030A50020
:100108000A30F6000030F7005208B700B801370887
:10011800F0003808F1000530F2000030F3000A1250
:100128008A156E270A128A117108F9007008F800FA
:100138000A128A11A3250A128A1177088312031357
:10014800A7007608A6000A128A110C260A128A113C
:10015800831203132508C7002408C6000A30A40028
:100168000030A5005208B700B8013708F000380879
:10017800F1000530F2000030F3000A128A156E27EC
:100188000A128A11710883120313A7007008A600C7
:100198000A128A110C260A128A11831203132508DF
:1001A800C5002408C400F401F40A02300A128A11B6
:1001B800A6240A128A110B3083120313A6004908D9
:1001C800A8004808A7004708AA004608A90045084B
:1001D800AC004408AB00A0300A128A11E1210A12CF
:1001E8008A11A030F5000030F6000A128A114B2758
:1001F8000A128A11831203131F08C33904389F0097
:10020800D5291F0CB700370C0F39013A031D0D29EA
:100218000E29D52901300A128A11BD220A128A1123
:10022800710883120313CD007008CC004D08A50097
:100238004C08A4000030A600A700FF30A80000303A
:10024800A9000030AA00AB006430AC000030AD005B
:100258000A128A1593270A128A1183120313B70008
:10026800B8013708CA003808CB006430F6000030FF
:10027800F7004B08F1004A08F0000530F2000030A2
:10028800F3000A128A156E270A128A117108F900FA
:100298007008F8000A128A1107270A128A117708CB
:1002A80083120313C3007608C2000A30A00000308E
:1002B800A1000A30F6000030F7004B08F1004A08A8
:1002C800F0000530F2000030F3000A128A156E279C
:1002D8000A128A117108F9007008F8000A128A11C6
:1002E80007270A128A11770883120313A3007608D6
:1002F800A2000A128A15C4270A128A11831203134C
:100308002108C1002008C0000A30A0000030A10068
:100318004B08F1004A08F0000530F2000030F30005
:100328000A128A156E270A128A117108831203139A
:10033800A3007008A2000A128A15C4270A128A119B
:10034800831203132108BF002008BE000730F40001
:1003580002300A128A11A6240A128A110B3083125B
:100368000313A6004308A8004208A7004108AA00F2
:100378004008A9003F08AC003E08AB00A0300A12B4
:100388008A11E1210A128A11A030F5000030F60026
:100398000A128A114B270A128A11C33083120313D7
:1003A8009F050C133C08FF003B088A003A088400AC
:1003B800390E8300FE0E7E0E090083120313B5006A
:1003C8002730B000A82A253036060319EC29ED2974
:1003D800F729350884003608831380000130AD0002
:1003E8002D08B507A82AB1010130A607FF30260756
:1003F80084000A128A150A200A128A11B600AD0072
:10040800AE012E08003A03190A2AA82A2D08003A34
:100418000319B82A643A0319152A0D3A0319152A3B
:10042800A82A3008840083130008B300840A00084F
:10043800B4000230AD002D08B007B41F242A252AC5
:100448002E2A0330AD002D08B104B309B409B30A4C
:100458000319B40AB601B60A3608AD002D07013EE5
:1004680084000A128A150A200A128A11AE000A129A
:100478008A150A200A128A11AF002F083402031DB8
:10048800472A2E08330203184A2A4B2A4C2A562A8E
:100498000130AD002D08B60705303606031D552A74
:1004A800562A302A3108033903195B2A5C2A652A3F
:1004B800350884002D30831380000130AD002D08ED
:1004C800B5073608B2009F2A0A30A0000030A10004
:1004D8003208AD002D07013E84000A128A150A2051
:1004E8000A128A11F6000A128A150A200A128A11BB
:1004F800F7003408F9003308F8000A128A110727B0
:100508000A128A11770883120313A3007608A2003F
:100518000A128A15C4270A128A11831203132008A3
:10052800303EB60035088400360883138000013059
:10053800AD002D08B507FF30AD002D08B207320A0F
:10054800031DA72AA82A682A0130A607FF30260714
:1005580084000A128A150A200A128A11B60036087F
:10056800031DB72AB82AE7293508840083138001B8
:100578000800F4007408031DC22AC32ACF2AC33016
:10058800831203139F051E08F200F3017208D000BE
:100598007308D100772B7403031DD32AD42ADB2ACE
:1005A800831203131F08C33904389F00C72A023077
:1005B8007406031DE02AE12AE82A831203131F08A0
:1005C800C33908389F00C72A03307406031DED2A73
:1005D800EE2AF52A831203131F08C3390C389F002B
:1005E800C72A04307406031DFA2AFB2A022B831239
:1005F80003131F08C33910389F00C72A0530740633
:10060800031D072B082B0F2B831203131F08C33955
:1006180014389F00C72A06307406031D142B152BA7
:100628001C2B831203131F08C33918389F00C72ACD
:1006380007307406031D212B222B292B8312031349
:100648001F08C3391C389F00C72A08307406031DC9
:100658002E2B2F2B362B831203131F08C339203858
:100668009F00C72A09307406031D3B2B3C2B432BE4
:10067800831203131F08C33924389F00C72A0A307E
:100688007406031D482B492B502B831203131F0894
:10069800C33928389F00C72A0B307406031D552B11
:1006A800562B5D2B831203131F08C3392C389F0068
:1006B800C72A0C307406031D622B632B6A2B831226
:1006C80003131F08C33930389F00C72A0D3074063A
:1006D800031D6F2B702B772B831203131F08C3394D
:1006E80034389F00C72A831203135108F1005008B9
:1006F800F000080083160313B9003903031D852B86
:10070800862BA52B37087F3EBC003C08B800043078
:100718000310B80CFF3E031D8C2B3808BA003C08A8
:100728000F39BB003A080A128A152C270A128A11B7
:10073800831603133B080A128A152C270A128A11FA
:10074800142C02303906031DAA2BAB2BCA2B3708F1
:10075800BF3EBC003C08B80004300310B80CFF3E94
:10076800031DB12B3808BA003C080F39BB003A0802
:100778000A128A152C270A128A11831603133B08BA
:100788000A128A152C270A128A11142C03303906EA
:10079800031DCF2BD02BEF2B3708933EBC003C0812
:1007A800B80004300310B80CFF3E031DD62B3808E0
:1007B800BA003C080F39BB003A080A128A152C27E0
:1007C8000A128A11831603133B080A128A152C276A
:1007D8000A128A11142C04303906031DF42BF52B48
:1007E800142C3708D33EBC003C08B8000430031072
:1007F800B80CFF3E031DFB2B3808BA003C080F3924
:10080800BB003A080A128A152C270A128A11831685
:1008180003133B080A128A152C270A128A11142C72
:10082800080083120313BD003D08031D1C2C1D2C5A
:10083800212C831603170814A52C3D03031D252C12
:10084800262C2A2C831603178814A52C02303D0663
:10085800031D2F2C302C342C831603170815A52CB8
:1008680003303D06031D392C3A2C3E2C8316031702
:100878008815A52C04303D06031D432C442C482C18
:10088800831603170816A52C05303D06031D4D2CAD
:100898004E2C522C831603178816A52C06303D06BD
:1008A800031D572C582C5C2C831603170817A52CEE
:1008B80007303D06031D612C622C662C8316031736
:1008C8008817A52C08303D06031D6B2C6C2C702C4A
:1008D800831603170914A52C09303D06031D752C32
:1008E800762C7A2C831603178914A52C0A303D061A
:1008F800031D7F2C802C842C831603170915A52C27
:100908000B303D06031D892C8A2C8E2C8316031769
:100918008915A52C0C303D06031D932C942C982C7E
:10092800831603170916A52C0D303D06031D9D2CB3
:100938009E2CA22C831603178916A52C8316031741
:1009480008140800F6007603031DAB2CAC2CC92C48
:1009580074087F3EF9007908F50004300310F50C9F
:10096800FF3E031DB22C7508F70079080F39F8000F
:1009780077080A128A15F2260A128A1178080A12CA
:100988008A15F2260A128A11322D02307606031DC4
:10099800CE2CCF2CEC2C7408BF3EF9007908F5005A
:1009A80004300310F50CFF3E031DD52C7508F70025
:1009B80079080F39F80077080A128A15F2260A1200
:1009C8008A1178080A128A15F2260A128A11322D1B
:1009D80003307606031DF12CF22C0F2D7408933E7C
:1009E800F9007908F50004300310F50CFF3E031DEB
:1009F800F82C7508F70079080F39F80077080A12FB
:100A08008A15F2260A128A1178080A128A15F2261D
:100A18000A128A11322D04307606031D142D152D65
:100A2800322D7408D33EF9007908F500043003101C
:100A3800F50CFF3E031D1B2D7508F70079080F39CB
:100A4800F80077080A128A15F2260A128A1178081D
:100A58000A128A15F2260A128A11322D0800831604
:100A68000313061186110612861206138613003028
:100A78000A128A150C270A128A111A3083160313D0
:100A8800B800F730B700B70B472DB80B472D4C2DE2
:100A980003300A128A152C270A128A110730831686
:100AA8000313B8007C30B700B70B582DB80B582D7E
:100AB800000003300A128A152C270A128A110F30F7
:100AC80083160313B8004730B700B70B692DB80B6E
:100AD800692D03300A128A152C270A128A1102304E
:100AE8000A128A152C270A128A1102300A128A154C
:100AF8002C270A128A1108300A128A152C270A1282
:100B08008A1100300A128A152C270A128A110C3011
:100B18000A128A152C270A128A1100300A128A151D
:100B28002C270A128A1106300A128A152C270A1253
:100B38008A110A128A15B5260A128A110800831228
:100B48000313A101F71FA92DAA2DB12DF609F70945
:100B5800F60A0319F70AA101A10AF91FB42DB52D48
:100B6800BE2DF809F909F80A0319F90A0130FA0043
:100B78007A08A106A201A301760877040319C52DF6
:100B8800C62DFD2DA001A00AD42D01300310F60DAD
:100B9800F70DFF3E031DCA2D0130FA007A08A007A1
:100BA800F71FD72DD82DC92D01300310A20DA30D85
:100BB800FF3E031DD92D77087902031DE52D760820
:100BC8007802031CE82DE92DF02D7608F802770845
:100BD800031CF903F902221401300310F70CF60C78
:100BE800FF3E031DF12D0130A002031DFC2DFD2D3C
:100BF800D82D21080319012E022E072EA209A309B8
:100C0800A20A0319A30A2308F7002208F60008001D
:100C1800FD0183120313A71F122E132E1A2EA609E5
:100C2800A709A60A0319A70AFD01FD0AA51F1D2E7B
:100C38001E2E232EA409A509A40A0319A50A24080F
:100C480025040319282E292E582EFC01FC0A372EBC
:100C580001300310A40DA50DFF3E031D2D2E0130FC
:100C6800FB007B08FC07A51F3A2E3B2E2C2E2508DF
:100C78002702031D412E24082602031C442E452E5C
:100C88004B2E2408A6022508031CA703A70201303F
:100C98000310A50CA40CFF3E031D4C2E0130FC02D2
:100CA800031D572E582E3B2E7D0803195C2E5D2EF2
:100CB800622EA609A709A60A0319A70A2708A500EC
:100CC8002608A400080083160313BD01BE01982E50
:100CD800831603133D083807BB003908BA00031808
:100CE800BA0ABD1F782EBA03831603133A08BC004C
:100CF8003C0883120313FF00831603133B08840088
:100D0800831203130A128A1500200A128A110A1282
:100D18008A118D270A128A11013083160313BD0721
:100D28000318BE0A0030BE073D083807BB00390863
:100D3800BA000318BA0ABD1FA22EBA0383160313FA
:100D48003A08BC003C0883120313FF008316031300
:100D58003B088400831203130A128A1500200A1222
:100D68008A11003A031DB92EBA2E6C2E08000A12F9
:100D78008A15DA260A128A110A128A15C2260A1256
:100D88008A1100300A128A1115240A128A110130B8
:100D98000A128A1115240A128A110A128A11332595
:100DA8000A128A11083083160313B70001300A1299
:100DB8008A117E230A128A11183083160313B80089
:100DC8008030B9000A128A1167260A128A11831222
:100DD80003139F1483160313B701B70A01300A12CD
:100DE8008A117E230A128A11143083160313B8005D
:100DF8008030B9000A128A1167260A128A11D62E83
:100E08000A128A111228FB01FC01760877040319DB
:100E18000E2F0F2F462FFD01FD0A1D2F0130031045
:100E2800F60DF70DFF3E031D132F0130FA007A0867
:100E3800FD07F71F202F212F122F01300310FB0D64
:100E4800FC0DFF3E031D222F77087902031D2E2F6C
:100E580076087802031C312F322F392F7608F802D2
:100E68007708031CF903F9027B1401300310F70C0F
:100E7800F60CFF3E031D3A2F0130FD02031D452FDE
:100E8800462F212F7C08F7007B08F6000800FA019E
:100E9800FB01702F7A087507F8007608F700031829
:100EA800F70AFA1F582FF7037708F9007908831211
:100EB8000313FF00780884000A128A1500200A121A
:100EC8008A110A128A11CC270A128A110130FA07EC
:100ED8000318FB0A0030FB077A087507F800760844
:100EE800F7000318F70AFA1F7A2FF7037708F900B3
:100EF800790883120313FF00780884000A128A1500
:100F080000200A128A11003A031D8B2F8C2F4E2FB6
:100F1800080083160313B70037080F39B5003708E0
:100F2800F039B60083120313061583160313360827
:100F3800B40004300310B40CFF3E031D9E2F340888
:100F48000A128A150C270A128A11831203138615AE
:100F58000C3083160313B400B40BB02F00008312B7
:100F6800031386118316031335080A128A150C27F2
:100F78000A128A118312031386150C308316031381
:100F8800B400B40BC52F00008312031386110800A8
:100F9800F40074080F39F2007408F039F300831272
:100FA800031306157308F10004300310F10CFF3E1B
:100FB800031DD92F71080A128A154C270A128A11A3
:100FC8008312031386150D30F100F10BE92F8312FC
:100FD8000313861172080A128A154C270A128A11FD
:100FE8008312031386150D30F100F10BF92F8312CC
:060FF8000313861108003E
:10100000FF1B0A2883137F1883170008840A03191B
:10101000FF0A080008308A000408840A82070034A6
:10102000013400340A34003464340034E8340334C6
:1010300010342734253464342E3425346434253474
:10104000643456340034533431343A340034533435
:0610500032343A34003492
:101D5A0064008001840A0406031900340406AE2EC6
:101D6A0000300A128A152C270A128A1501300A1223
:101D7A008A152C270A128A150800831203139F1347
:101D8A001F17831603139F121F129F138312031325
:101D9A009F121F129F111F111F1420308312031349
:101DAA00BD00BD0BD62E000008008316031789015B
:101DBA0083160313860187018801831203138501A1
:101DCA008601870188018B170B17831603130C17DB
:101DDA000F178F160F120F140800F3008312031344
:101DEA00061173080A128A154C270A128A158312D9
:101DFA00031386150630F2003030F100F10B032F81
:101E0A00F20B032F000083120313861108008312BA
:101E1A000313BD003D1C122F132F152F0616162F64
:101E2A000612BD1C192F1A2F1C2F86161D2F86125B
:101E3A003D1D202F212F232F0617242F0613BD1DEA
:101E4A00272F282F2A2F86172B2F86130800831651
:101E5A000313B600831203130611831603133608FD
:101E6A000A128A150C270A128A1583120313861579
:101E7A00063083160313B5002F30B400B40B432F7A
:101E8A00B50B432F482F8312031386110800F00065
:101E9A00701C502F512F552F831203130616582FDB
:101EAA00831203130612F01C5B2F5C2F5E2F86161B
:101EBA005F2F8612701D622F632F652F0617662FFC
:101ECA000613F01D692F6A2F6C2F86176D2F861344
:101EDA000800F401F501701C732F742F7A2F720811
:101EEA00F4070318F50A7308F50701300310F20D19
:101EFA00F30DFF3E031D7B2F01300310F10CF00C94
:101F0A00FF3E031D822F70087104031D8D2F8E2F33
:101F1A00702F7508F1007408F0000800831203138B
:101F2A0026082802F6002708031C270A2902F700B8
:101F3A0026082402F0002708031C270A2502F100BC
:101F4A002A082C02F2002B08031C2B0A2D02F3008C
:101F5A000A128A156E270A128A157108F900700882
:101F6A00F8000A128A11A3250A128A157608FB00BC
:101F7A007708FC00831203132A087B0708008312E0
:101F8A000313200821040319CB2FCC2FFB2FA50103
:101F9A00A50ADA2F01300310A00DA10DFF3E031D83
:101FAA00D02F0130A4002408A507A11FDD2FDE2FA2
:101FBA00CF2F21082302031DE42F20082202031C2D
:101FCA00E72FE82FEE2F2008A2022108031CA30303
:101FDA00A30201300310A10CA00CFF3E031DEF2F3A
:101FEA000130A502031DFA2FFB2FDE2F2308A100C3
:061FFA002208A00008000F
:08400000FF3FFF3FFF3FFF3FC0
:04400E00D420FF3F7C
:00000001FF
